:200000000C94F9260C942A270C942A270C942A270C942A270C942A270C942A270D946E2745
:200020000C942A270C942A270C942A270C942A270C942A270C942A270C942A270D9460D256
:200040000C942A270C942A270C942A270C942A270C942A270C942A270C942A270C942A2718
:200060000C942A270D9418280D9447280C942A270C942A270C942A270C942A270C942A27E9
:200080000C942A270C942A270C942A270C942A270D9482280D94B1280C942A270D942C2CED
:2000A0000C942A270D948DD20C942A270C942A270C942A270C942A270D94BAD20C942A276D
:2000C0000C942A270C942A270D9447320D94EC280D941B290C942A270C942A270C942A27B7
:2000E0000C942A27D74C234D2C4DF94C124D354DC44D7C4D734D604D854D9A4DAD4D3E4D58
:200100004D4DD04CDE4DCD4DF74DFF4DD04C074ED04C194ED04CEF4DC0599A5A385BC95946
:20012000F359EC594C5ADE59CE5AFA59CE5A535ACE5A385B595A7B5A915A16602760306046
:200140003B60EE628660EE62E460EA60F360EE622D60FE60EE6210611A61B262EE62EE6272
:20016000EE62EE62EE62BB62C262C962D262E26240672D6A8C6759676A679D67D0672D6A17
:200180002D6A70682D6A14682D6ABF672D6A2D6AA368BC68D5682D6A7B67256857682D6A2A
:2001A0008168AE672D6A3E682D6AEE68FF682D6A2D6AE167F26703682D6A106940699268C3
:2001C00059692D6A2D6A2D6A6A69756986699769A869B969CA6925781478857841793D7BFA
:2001E0002E7B4E7D517A0F82F77B0F82517D0F82687D787D767E7F7F4E79577971794E7DB5
:2002000057791D7A207A122620253E25FA256424742630248C2248238A26B623F6247E2509
:20022000DC22B2226626A622E424F22556257E24E822A6259C269C227222E6247624A02609
:20024000F62202252E23AA22AA22702470247024522452245224C223A823A823B6254E2391
:200260003E23902432230025F024F625AA265A223E221C240023082632249A2624237E2385
:20028000EE23FA22682506266C23402570258426BE24AE25FA2304261E23A0248823502227
:2002A00074236E265C238422CE258225C6247824E8239C2326258C25982674252E24C2227B
:2002C000E2234A268A22A6231E243A255E225A24A826BE233A2450262A23B224CC220E26CD
:2002E000C4249624782340265823302682241025BA2536248A2590259023E02454230C24B4
:200300000E230E23EE250E230E23EE25EE251C25FE231C25FE231C25FE231C25C423C423AB
:20032000C423C423C423C423C423C423C423EC261C25FE231C25FE231C25FE231C25FE23D2
:200340001C25EC261C25C423C423FE231C25C423FE231C25FE231C25EC26AC25B424AC25A2
:20036000B424AC25B424AC25B424AC25B4245E255E255E25D622D6225E255E255E25D622B0
:20038000D6225A265A265A260C230C235A265A265A260C230C23222302242223022422238E
:2003A00002242223022422236222A2232A265824EE24B42678259C247825782578256024AE
:2003C000A8250824622462243823B223D624A82230235422C6234E25A624A62408237E269C
:2003E0007E267E267E267E267E26A6247E267E267E267E260823082308230823082308236D
:200400007E267E26A624A6240823036EDB363D9A9999993DABAAAA2A3E000000803F084AFC
:20042000D73B3BCE016E84BCBFFDC12F3D6C74319ABD56833DDA3D00C77F11BED9E4BB4C9B
:200440003E916BAAAABE000000803F072C7AA5BA6CC590DA3B9365FC8BBC53F810FD3C568A
:2004600092834DBD879D3AB63DCBC9BF5BBE73DA0FC93F05A84CCDB2D44EB93836A9020CC4
:2004800050B9918688083CA6AAAA2ABE000000803F08000000BE922449123EABAAAA2ABED3
:2004A000CDCCCC4C3E00000080BEABAAAAAA3E00000000BF000000803F0000000000084161
:2004C00078D3BB4387D1133D190E3CC3BD4282AD2B3E68EC8276BED98FE1A93E4C80EFFF7A
:2004E000BE01C4FF7F3F00000000005265616368656420436F6D6D616E642023256900520E
:2005000065616368656420436F6D6D616E64202325690044434D206261642068656164699B
:200520006E670043726173683A2044697361726D696E67004175746F54756E653A204661C7
:20054000696C6564004175746F54756E653A2053756363657373004175746F54756E653A26
:200560002053746F70706564004175746F54756E653A2053746172746564004D6F746F7205
:2005800020546573743A2053616665747920537769746368004D6F746F7220546573743A38
:2005A0002076656869636C65206E6F74206C616E646564004D6F746F7220546573743A2017
:2005C0005243206E6F742063616C696272617465640061626C65640A0064697300656E00D5
:2005E0000A436F6D4D6F7425643A2025342E32662C2025342E32662C2025342E32660A00C0
:2006000043757272656E74005468726F74746C65004F66660A004D6F746F7220436F6D70BC
:200620003A20004D61672564206F66663A2025342E34662C2025342E34662C2025342E3478
:20064000660A004D6167204465633A2025342E34660A00436F6D706173730A004661696C08
:200660006564210043616C6962726174696F6E205375636365737366756C21005448524F8A
:2006800054544C450043555252454E54005354415254494E472043414C4942524154494F98
:2006A0004E004E6F74206C616E64656400746872206E6F74207A65726F005243206E6F748E
:2006C0002063616C6962726174656400636865636B20636F6D7061737300636F6D70617358
:2006E000732064697361626C65640A004672616D653A20515541440041726475436F707493
:2007000065722056332E322E31202833366234303566622900434F4D5041535320494E49E7
:2007200054204552524F52004553432063616C20696E7075743A20257520257520257520B8
:20074000257520206F75747075743A2025752025752025752025750A004553432043616CD7
:200760003A2070617373696E67207468726F74746C65207468726F75676820746F204553B8
:2007800043732E0A00456E746572696E67204553432043616C3A2072657374617274204144
:2007A000504D2E0A004C6F6720657261736520636F6D706C6574650A0045726173696E67C6
:2007C000206C6F67730A006C6F61645F616C6C20746F6F6B20256C7575730A00646F6E6567
:2007E0002E004669726D77617265206368616E67653A2065726173696E6720454550524F2A
:200800004D2E2E2E0A0042616420766172207461626C650042616420766172207461626C2C
:20082000650A002D004657205665723A2025640A00496E697469616C6973696E67204150B0
:200840004D2E2E2E000A526561647920746F20464C59200045524153494E47204C4F475336
:20086000004E6F2064617461666C61736820696E736572746564000A0A496E6974204172FA
:200880006475436F707465722056332E322E3120283336623430356662290A0A4672656577
:2008A0002052414D3A2025750A004C6F73742047505321004C6F772042617474657279211F
:2008C000005472696D207361766564006261726F6D657465722063616C6962726174696F4E
:2008E0006E20636F6D706C6574650043616C6962726174696E67206261726F6D65746572D0
:200900000047524F554E442053544152540041726D3A204779726F2063616C206661696C33
:2009200065640041726D3A20536166657479205377697463680041726D3A204C65616E6913
:200940006E670041726D3A205468722062656C6F772046530041726D3A20416C74206469A0
:20096000737061726974790041726D3A204D6F6465206E6F742061726D61626C6500507245
:200980006541726D3A2048696768204750532048444F500050726541726D3A2042616420DB
:2009A00056656C6F636974790050726541726D3A204E6565642033442046697800507265C6
:2009C00041726D3A2047505320476C697463680050726541726D3A204143524F5F42414C44
:2009E0005F524F4C4C2F50495443480050726541726D3A20436865636B20414E474C455F53
:200A00004D41580050726541726D3A20436865636B2046535F5448525F56414C554500503F
:200A2000726541726D3A2043683726436838204F70742063616E6E6F742062652073616D3C
:200A4000650050726541726D3A20436865636B20426F61726420566F6C74616765005072F6
:200A60006541726D3A204779726F2063616C206661696C65640050726541726D3A204779C0
:200A8000726F73206E6F74206865616C7468790050726541726D3A20416363656C73206E08
:200AA0006F74206865616C7468790050726541726D3A20494E53206E6F742063616C69622D
:200AC00072617465640050726541726D3A20636865636B2066656E63650050726541726DFF
:200AE0003A20436865636B206D6167206669656C640050726541726D3A20436F6D70617341
:200B000073206F66667365747320746F6F20686967680050726541726D3A20436F6D706185
:200B20007373206E6F742063616C696272617465640050726541726D3A20436F6D7061732F
:200B400073206E6F74206865616C7468790050726541726D3A20416C74206469737061723D
:200B60006974790050726541726D3A204261726F206E6F74206865616C7468790050726553
:200B800041726D3A205243206E6F742063616C69627261746564004672616D653A205155BF
:200BA00041440041726475436F707465722056332E322E31202833366234303566622900B2
:200BC000504552463A2025752F257520256C750A008D000100424154545F4D4F4E49544F0D
:200BE000520000000000A8000100424154545F564F4C545F50494E00000000A900010042F9
:200C00004154545F435552525F50494E000000008E000400424154545F564F4C545F4D55A8
:200C20004C540000008F000400424154545F414D505F504552564F4C540091000300424177
:200C400054545F434150414349545900000000140002004C4F475F4249544D41534B0000DD
:200C6000000000008059464D54000042426E4E5A0000000000000000000000547970652C4C
:200C80004C656E6774682C4E616D652C466F726D61742C436F6C756D6E73000000000000A3
:200CA0000000000000000000000000000000000000000000000000000000008117504152B9
:200CC0004D004E6600000000000000000000000000004E616D652C56616C75650000000069
:200CE0000000000000000000000000000000000000000000000000000000000000000000F4
:200D0000000000000000000000000000000000000000822D475053000042494842634C4C2A
:200D20006565456566490000005374617475732C54696D654D532C5765656B2C4E53617457
:200D4000732C48446F702C4C61742C4C6E672C52656C416C742C416C742C5370642C474329
:200D600072732C565A2C540000831F494D55000049666666666666000000000000000000F8
:200D800054696D654D532C477972582C477972592C4779725A2C416363582C416363592CBC
:200DA0004163635A00000000000000000000000000000000000000000000000000000000D2
:200DC00084434D534700005A0000000000000000000000000000004D657373616765000046
:200DE0000000000000000000000000000000000000000000000000000000000000000000F3
:200E0000000000000000000000000000000000000000000000000085235243494E0049684D
:200E2000686868686868686868686868680054696D654D532C43312C43322C43332C4334B5
:200E40002C43352C43362C43372C43382C43392C4331302C4331312C4331322C4331332CE2
:200E60004331340000000000000000000000861752434F550049686868686868686800006B
:200E8000000000000054696D654D532C4368616E312C4368616E322C4368616E332C4368C4
:200EA000616E342C4368616E352C4368616E362C4368616E372C4368616E380000000000BD
:200EC000000000000088154241524F004966666366000000000000000000000054696D65E4
:200EE0004D532C416C742C50726573732C54656D702C4352740000000000000000000000D5
:200F000000000000000000000000000000000000000000000000000000000000890D504F9C
:200F20005752004943434800000000000000000000000054696D654D532C5663632C5653A5
:200F40006572766F2C466C61677300000000000000000000000000000000000000000000BC
:200F6000000000000000000000000000000000000000009129434D440000494848486666F6
:200F80006666666666000000000054696D654D532C43546F742C434E756D2C4349642C5047
:200FA000726D312C50726D322C50726D332C50726D342C4C61742C4C6E672C416C74000090
:200FC000000000000000000000009210524144000049424242424248480000000000000075
:200FE0000054696D654D532C525353492C52656D525353492C54784275662C4E6F69736585
:201000002C52656D4E6F6973652C52784572726F72732C46697865640000000000000000F3
:2010200000941F43414D000049484C4C65656363430000000000000047505354696D652C8B
:201040004750535765656B2C4C61742C4C6E672C416C742C52656C416C742C526F6C6C2CD2
:2010600050697463682C59617700000000000000000000000000000019194154554E00426F
:20108000426666666666000000000000000000417869732C54756E65537465702C526174C4
:2010A000654D696E2C526174654D61782C52504761696E2C52444761696E2C53504761695B
:2010C0006E00000000000000000000000000001A0941544445006366000000000000000098
:2010E000000000000000416E676C652C526174650000000000000000000000000000000051
:201100000000000000000000000000000000000000000000000000000000000000000000CF
:20112000000000000000091743555252004968496868686600000000000000000054696D91
:20114000654D532C5468724F75742C546872496E742C566F6C742C437572722C5663632C66
:2011600043757272546F74000000000000000000000000000000000000000000000C144F2D
:20118000460000006868426363656500000000000000000044782C44792C535175616C2C84
:2011A000582C592C526F6C6C2C506974636800000000000000000000000000000000000069
:2011C0000000000000000000000000000000000000000000052F4E54554E004966666666B5
:2011E000666666666666000000000054696D654D532C44506F73582C44506F73592C506F7C
:2012000073582C506F73592C4456656C582C4456656C592C56656C582C56656C592C444165
:201220006363582C4441636359000004214354554E00496868686666656363686800000019
:20124000000054696D654D532C546872496E2C416E674273742C5468724F75742C44416C34
:20126000742C416C742C426172416C742C4453416C742C53416C742C444352742C43527419
:2012800000000F194D414700004968686868686868686800000000000054696D654D532C05
:2012A0004D6167582C4D6167592C4D61675A2C4F6673582C4F6673592C4F66735A2C4D4FBD
:2012C0006673582C4D4F6673592C4D4F66735A000000000000000000000611504D00000034
:2012E000484849684248420000000000000000004E4C6F6E2C4E4C6F6F702C4D6178542C84
:20130000504D542C4932434572722C494E534572722C494E41564572720000000000000007
:201320000000000000000000000000000000000001174154540000496363636343434343CB
:201340000000000000000054696D654D532C446573526F6C6C2C526F6C6C2C4465735069B7
:201360007463682C50697463682C4465735961772C5961772C45727252502C45727259612E
:201380007700000000000003064D4F4445004D6800000000000000000000000000004D6F37
:2013A00064652C5468724372730000000000000000000000000000000000000000000000E2
:2013C0000000000000000000000000000000000000000000000000000000000000000A0300
:2013E0005354525400000000000000000000000000000000000000000000000000000000A0
:201400000000000000000000000000000000000000000000000000000000000000000000CC
:201420000000000000000000000000000000000000000000000D04455600000042000000BE
:201440000000000000000000000000004964000000000000000000000000000000000000DF
:2014600000000000000000000000000000000000000000000000000000000000000000006C
:201480000000000000000000000000001406443136000042680000000000000000000000DD
:2014A00000000049642C56616C756500000000000000000000000000000000000000000056
:2014C00000000000000000000000000000000000000000000000000000000000000000000C
:2014E000000000150644553136004248000000000000000000000000000049642C56616C4B
:201500007565000000000000000000000000000000000000000000000000000000000000F1
:201520000000000000000000000000000000000000000000000000000000160844333200E4
:20154000004269000000000000000000000000000049642C56616C7565000000000000000A
:2015600000000000000000000000000000000000000000000000000000000000000000006B
:201580000000000000000000000000000000000000170844553332004249000000000000A3
:2015A000000000000000000049642C56616C75650000000000000000000000000000000055
:2015C00000000000000000000000000000000000000000000000000000000000000000000B
:2015E0000000000000000000180844464C54004266000000000000000000000000000049B0
:20160000642C56616C7565000000000000000000000000000000000000000000000000003D
:20162000000000000000000000000000000000000000000000000000000000000000001397
:20164000054552520000424200000000000000000000000000005375627379732C45436F6C
:201660006465000000000000000000000000000000000000000000000000000000000000A1
:2016800000000000000000000000000000000000000000000000EE5F01006400E145020070
:2016A000C201CD6402008403E2630A00D002F2620A0032000A8F0A000A00292E0A008C0062
:2016C0007E400A00E8035A8D040020030A3501003200C06621005A00D12B0200A4012D273F
:2016E0000200FA00CD2B02006400204B6400A401CC5C0A0014003A480A0014003C2B0200CD
:201700002602392B64009600362B0200D0028F4F0200B603162B0200C201D23A0A002C012C
:20172000BC3A0200DC00436AE803C8004F330A0032000253595349445F53575F4D52455687
:2017400000000000008712000000000153595349445F53575F54595045000000000189121D
:20176000000020410253595349445F544849534D415600000000708A120000803F02535986
:201780005349445F4D59474353000000000000718C1200007F430253455249414C305F4223
:2017A0004155440000000000318E120000E6420253455249414C315F4241554400000000E8
:2017C00000329012000064420154454C454D5F44454C415900000000000073921200000032
:2017E000000252544C5F414C5400000000000000000000A093120080BB4404524E47464E72
:20180000445F4741494E0000000000001E9512CDCC4C3F0146535F424154545F454E414284
:201820004C45000000C19912000000000446535F424154545F564F4C544147450000979AE2
:2018400012000028410446535F424154545F4D4148000000000000259E1200000000014695
:20186000535F4750535F454E41424C4500000000C3A2120000803F0146535F4743535F4516
:201880004E41424C4500000000C6A3120000803F024750535F48444F505F474F4F440000AE
:2018A000000023A41200006643014D41475F454E41424C450000000000000092A612000080
:2018C000803F01464C4F575F454E41424C4500000000000096A7120000000001535550457D
:2018E000525F53494D504C4500000000009BA812000000000252544C5F414C545F46494EA8
:20190000414C00000000A3A9120000000001525353495F50494E000000000000000000183C
:20192000AB12000080BF04525353495F52414E47450000000000000027AC120000A04001D4
:2019400057505F5941575F4245484156494F5200001AB012000000400352544C5F4C4F498D
:20196000545F54494D4500000000A2B61200409C45024C414E445F53504545440000000009
:20198000000000D9BA12000048420250494C4F545F56454C5A5F4D41580000001CBC1200BF
:2019A000007A430250494C4F545F414343454C5F5A0000000030BE1200007A4302544852C3
:2019C0005F4D494E00000000000000000000B4C01200000243025448525F4D4158000000C4
:2019E00000000000000000B5C21200007A440146535F5448525F454E41424C4500000000B3
:201A0000B6C412000000000246535F5448525F56414C55450000000000B8C51200C0734470
:201A2000025452494D5F5448524F54544C4500000000B9C7120000E143025448525F4D49F8
:201A40004400000000000000000000C2C9120000FA43025448525F445A000000000000007B
:201A60000000000039CB120000C84201464C544D4F444531000000000000000000C8CD1262
:201A80000000000001464C544D4F444532000000000000000000C9CE120000000001464CCC
:201AA000544D4F444533000000000000000000CACF120000000001464C544D4F444534008F
:201AC0000000000000000000CBD0120000000001464C544D4F444535000000000000000018
:201AE00000CCD1120000000001464C544D4F444536000000000000000000CDD21200000044
:201B0000000153494D504C450000000000000000000000CED31200000000034C4F475F42C1
:201B200049544D41534B0000000000003CD41200805F4401455343000000000000000000BB
:201B40000000000000BAD812000000000154554E4500000000000000000000000000BBD910
:201B600012000000000254554E455F4C4F57000000000000000000BDDC12000000000254C3
:201B8000554E455F484947480000000000000000BCDA1200007A44014652414D450000000C
:201BA00000000000000000000095DE120000803F014348375F4F50540000000000000000CC
:201BC000000098DF1200000000014348385F4F5054000000000000000000001FE012000055
:201BE00000000141524D494E475F434845434B000000000020E1120000803F02414E474C73
:201C0000455F4D4158000000000000000022341500A08C450152435F4645454C5F5250004C
:201C200000000000000028B1120000C8420250484C445F4252414B455F5241544500002E08
:201C4000B212000000410250484C445F4252414B455F414E474C45002FB41200803B4501D5
:201C60004C414E445F5245504F534954494F4E000034E2120000803F04454B465F434845EA
:201C8000434B5F5448524553480036E312CDCC4C3F0444434D5F434845434B5F5448524513
:201CA0005348003BE712CDCC4C3F085243315F00000000000000000000000000AAEB120558
:201CC000420000085243325F00000000000000000000000000AB08130542000008524333B7
:201CE0005F00000000000000000000000000AC251305420000085243345F0000000000002A
:201D000000000000000000AD421305420000085243355F0000000000000000000000000049
:201D2000AE5F13BA410000085243365F00000000000000000000000000AF7D13BA4100001C
:201D4000085243375F00000000000000000000000000B09B13BA410000085243385F0000C3
:201D60000000000000000000000000B1B913BA41000008524331305F00000000000000008E
:201D800000000000B2D713BA41000008524331315F000000000000000000000000B3F51393
:201DA000BA4100000252435F5350454544000000000000000000C013140000F5430441431A
:201DC000524F5F52505F500000000000000000DD151400009040044143524F5F5941575F04
:201DE0005000000000000000F4191400009040044143524F5F42414C5F524F4C4C000000B3
:201E000000F21D140000803F044143524F5F42414C5F5049544348000000F321140000800A
:201E20003F014143524F5F545241494E455200000000001B251400000040044143524F5FAD
:201E40004558504F00000000000000003826149A99993E08524154455F524C4C5F000000EE
:201E60000000000000DF2A14F724000008524154455F5049545F0000000000000000E04823
:201E800014F724000008524154455F5941575F0000000000000000E16614F7240000084C66
:201EA0004F495445525F4C41545F000000000000E78414F7240000084C4F495445525F4CE4
:201EC0004F4E5F000000000000E8A214F7240000085448525F524154455F0000000000006D
:201EE0000000ECC014C5240000085448525F414343454C5F00000000000000F1C414F72449
:201F00000000084F465F524C4C5F00000000000000000000EDE214F7240000084F465F5032
:201F200049545F00000000000000000000EE0015F7240000085354425F524C4C5F000000EE
:201F4000000000000000E22215C5240000085354425F5049545F000000000000000000E300
:201F60002615C5240000085354425F5941575F000000000000000000E42A15C52400000889
:201F80005448525F414C545F000000000000000000EB2E15C524000008484C445F4C41547D
:201FA0005F000000000000000000E51E15C52400000843414D5F0000000000000000000089
:201FC000000000A5E406CF2B00000852454C41595F00000000000000000000000D0E07660C
:201FE0003F000008434F4D504153535F000000000000000000933810852C000008494E53A7
:202000005F0000000000000000000000000003D20F6F39000008494E41565F000000000040
:2020200000000000000000648F09C03700000857504E41565F0000000000000000000000BA
:20204000655407BF25000008434952434C455F00000000000000000000681D07742500009E
:20206000084154435F000000000000000000000000006610093523000008504F53434F4E70
:202080005F00000000000000000000672D08E4230000085352305F00000000000000000002
:2020A000000000006E1C0C3B220000085352315F000000000000000000000000006FF30C82
:2020C0003B22000008414852535F0000000000000000000000009F0C0EA0260000084D4EEC
:2020E000545F00000000000000000000000000A67C06B43B000008424154545F0000000084
:20210000000000000000000024C20ABC2A0000084252445F000000000000000000000000AA
:20212000000FF50BB62B000008474E445F000000000000000000000000000B381190280063
:2021400000084750535F0000000000000000000000000010DD11D9350000085343484544B3
:202160005F00000000000000000000000C7212F93F00000846454E43455F00000000000070
:202180000000000000454C061624000008475053474C495443485F0000000000000046BD5F
:2021A0001124360000084241524F474C5443485F00000000000000472011F4280000084DCE
:2021C0004F545F000000000000000000000000005A410B2F3B00000852434D41505F000013
:2021E000000000000000000000C7F60BD63D0000084D49535F0000000000000000000000B4
:2022000000002ACA0DB93A000008524E47464E44000000000000000000000035000C533E31
:202220000000000000000000000000000000000000000000000000000000000200524157B2
:202240005F53454E5300000000000000000066000000000002014558545F535441540000F1
:2022600000000000000000680000000000020252435F4348414E00000000000000000000E4
:202280006A000000000002035241575F4354524C0000000000000000006C000000000002E3
:2022A00004504F534954494F4E0000000000000000006E000000000002054558545241317B
:2022C0000000000000000000000000700000000000020645585452413200000000000000D0
:2022E000000000007200000000000207455854524133000000000000000000000074000038
:202300000000000208504152414D53000000000000000000000076000000000000FF00007A
:202320000000000000000000000000000000000000000000000400524154455F52505F4DC0
:202340004158000000000000260000A08C460401524154455F595F4D41580000000000001E
:20236000002A0000A00C460402534C45575F5941570000000000000000002E0000007A44C4
:202380000403414343454C5F52505F4D415800000000003200000000000404414343454C06
:2023A0005F595F4D41580000000000003600000000000105524154455F46465F454E414258
:2023C00000000000003A000000000000FF00000000000000000000000000000000000000C4
:2023E0000000000004005448525F484F564552000000000000000017000000E14300FF00CE
:20240000000000000000000000000000000000000000000000000100454E41424C45000014
:20242000000000000000000000020000000000010154595045000000000000000000000056
:2024400000000300000040400102414354494F4E00000000000000000000000400000080B4
:202460003F0403414C545F4D41580000000000000000000005000000C842040452414449B9
:202480005553000000000000000000000009000000964304054D415247494E0000000000EB
:2024A0000000000000000D000000004000FF000000000000000000000000000000000000D0
:2024C00000000000000400500000000000000000000000000000000000000000000000FFA9
:2024E000000000000000000000000000000000000000000000000004005000000000000088
:2025000000000000000000000000000000000000040149000000000000000000000000006D
:20252000000000040000000000040244000000000000000000000000000000000800000045
:2025400000000203494D4158000000000000000000000000000C000000000000FF0000003C
:2025600000000000000000000000000000000000000000000400524144495553000000008F
:2025800000000000000000070000007A440401524154450000000000000000000000000045
:2025A0000B000000A04100FF0000000000000000000000000000000000000000000000042C
:2025C0000053504545440000000000000000000000000F000000FA43040152414449555371
:2025E00000000000000000000000001B0000004843040253504545445F55500000000000BA
:2026000000000000130000007A43040353504545445F444E0000000000000000001700006A
:2026200000164304044C4F49545F53504545440000000000000007000000FA430405414360
:2026400043454C0000000000000000000000001F000000C8420406414343454C5F5A000062
:20266000000000000000000023000000C84204074C4F49545F4A45524B000000000000005F
:20268000000B0000007A4400FF000000000000000000000000000000000000000000000072
:2026A00004024750535F4741494E00000000000000000022000000803F01034750535F5529
:2026C0005345000000000000000000002C000000803F04045941575F5000000000000000CF
:2026E00000000000001A00CDCC4C3E040552505F50000000000000000000000000001E0025
:20270000CDCC4C3E010657494E445F4D41580000000000000000002D00000000000508548A
:2027200052494D0000000000000000000000000041000000000001094F5249454E54415400
:20274000494F4E0000000000002E0000000000040A434F4D505F42455441000000000000AD
:2027600000002800CDCCCC3D010B4750535F4D494E534154530000000000002F000000C02C
:202780004000FF000000000000000000000000000000000000000000000050414E49433A55
:2027A0002041505F4261726F3A3A7265616420756E7375636365737366756C20666F7220AB
:2027C0006D6F7265207468616E203530306D7320696E2041505F4261726F3A3A63616C694E
:2027E0006272617465205B335D0D0A0050414E49433A2041505F4261726F3A3A7265616460
:2028000020756E7375636365737366756C20666F72206D6F7265207468616E203530306D4E
:202820007320696E2041505F4261726F3A3A63616C696272617465205B325D0D0A005041CD
:202840004E49433A2041505F4261726F3A3A7265616420756E7375636365737366756C205D
:20286000666F72206D6F7265207468616E203530306D7320696E2041505F4261726F3A3ADF
:2028800063616C696272617465205B315D0D0A0004024142535F50524553530000000000A9
:2028A0000000000C0000000000040354454D500000000000000000000000000008000000C7
:2028C00000000104414C545F4F46465345540000000000000010000000000000FF000000DD
:2028E00000000000000000000000000000000000000000000100454E41424C450000000030
:202900000000000000000003000000803F04014449535400000000000000000000000000BC
:2029200004000000FA430402414343454C00000000000000000000000008000080BB440071
:20294000FF000000000000000000000000000000000000000000000050414E49433A204172
:20296000505F4261726F5F4D533536313120746F6F6B206D6F7265207468616E203130302C
:20298000306D7320746F20696E697469616C697A650050414E49433A2041505F4261726F99
:2029A0005F4D53353631313A206661696C656420746F2074616B652073657269616C207391
:2029C000656D6170686F726520666F7220696E69740050414E49433A2041505F4261726F32
:2029E0005F4D53353631313A204E554C4C2073657269616C206472697665720050414E4902
:202A0000433A206661696C656420746F2074616B65205F7370695F73656D20313030207438
:202A2000696D657320696E206120726F772C20696E2041505F4261726F5F4D533536313175
:202A40003A3A5F7570646174650050414E49433A2041505F4261726F5F4D533536313120FB
:202A6000646964206E6F74206765742076616C6964205350492073656D617068726F652113
:202A80000050414E49433A2041505F4261726F5F4D533536313120646964206E6F742067E8
:202AA00065742076616C6964205350492064657669636520647269766572210001004D4F07
:202AC0004E49544F52000000000000000000000000000000000101564F4C545F50494E00DD
:202AE00000000000000000000100000050410102435552525F50494E0000000000000000BF
:202B0000000200000040410403564F4C545F4D554C54000000000000000003009A992141AD
:202B20000404414D505F504552564F4C540000000000000700000088410405414D505F4FBF
:202B40004646534554000000000000000B000000000003064341504143495459000000009B
:202B600000000000000F0000404E450107564F4C54325F50494E000000000000000013009B
:202B8000000080BF0408564F4C54325F4D554C540000000000000014000000803F00FF0000
:202BA0000000000000000000000000000000000000000000000000FF000000000000000016
:202BC000000000000000000000000000000000010054524947475F545950450000000000D6
:202BE000000000000000000001014455524154494F4E00000000000000000001000000204C
:202C0000410202534552564F5F4F4E00000000000000000002000080A24402035345525637
:202C20004F5F4F46460000000000000000040000808944040454524947475F4449535400A2
:202C400000000000000009000000000000FF0000000000000000000000000000000000006C
:202C600000000000004661696C656420746F2067657420484D43353834332073656D6170AA
:202C8000686F72650005014F4653000000000000000000000000000017000000000004027B
:202CA000444543000000000000000000000000000023000000000001034C4541524E0000AF
:202CC0000000000000000000000008000000803F010455534500000000000000000000003B
:202CE00000000027000000803F01054155544F4445430000000000000000000028000000BB
:202D0000803F01064D4F544354000000000000000000000000A4000000000005074D4F54C6
:202D20000000000000000000000000000000A5000000000001084F5249454E540000000014
:202D400000000000000000160000000000010945585445524E414C000000000000000000F0
:202D600029000000000000FF000000000000000000000000000000000000000000000080AB
:202D800011401140713273343332131211321112933413145352310021030406080B2D0A1B
:202DA000090705040241C011C0511253547312111251527314733231002102040506070833
:202DC00009080607062403020102000120012011C00111003132137413143312F112D31240
:202DE000510001022325060746442342210001E0A0313213B4331112110011201100523341
:202E0000121332112001222485042304020342410001E0A051121413151315341332514059
:202E20000120115213323100012223040504050423010382612001E01180113213541514CD
:202E40003332314021020100317231410223442302012201220102614001A0118051121442
:202E600013341514331231400102010302012052111220212243042241022102A10001E0D9
:202E8000201140515374133211402102030203020100111211320011412223222100410262
:202EA000A18001601160110011323374131211400162030203213112111211400102010265
:202EC000030201000100E121E0A0112012117334333120016203624012111211001101008A
:202EE000010201220001200100E1C001001180110012111312141334522001E202212031DA
:202F000012110011000100210201000140210002410001E06011401112111312141314137A
:202F20003211002122034201022100010011001211001120010041600100C1000140112066
:202F4000016011405112131213143312310001420322010221000140110031001100010079
:202F6000010001A0E10001A00180112031529312110021C221002140310011201100010069
:202F800001E0E16001E0110011727312310021420301020102202140110011201160014003
:202FA0001160010001022102000120014001A051321312533211200102018221002100014F
:202FC00000110031E0001100116021000102010201010021200100016011001152131214D4
:202FE000135211004182010200010021401100110011A01100310011208122010100020145
:2030000000210001601100521312131413323101000201220142010021000100011120113A
:20302000001120114071001140010221020102010021022100010001001100121112331251
:2030400034133211200102014201220100410001601120110011001100511231206102013E
:2030600022020002010281201100121173341332110041020182010061000180110011008A
:20308000913231402142010202006261401152141354333100418201220001020041000124
:2030A00060911211525120012201030102020082610051335415143331002102012203423A
:2030C0004102A180319213323100412203020103002203220102014011123395333101000C
:2030E0002201034203222122010261000111001152131253123100412203220300230203B9
:2031000002010221203213141615171615331120016203020302032201A2414011125314FF
:20312000131413321101000201020302030202000223020322212032141637181715131277
:20314000110021220302430243010302038221201112131415341514321100016223020338
:203160000043020342012012131518193A1715131100210203026304E3020302030201022E
:203180004012131415171516341220212243020300A3220100111215181C1E1D19161311AE
:2031A0000002010302030423040324030443042304030203422011121415171836151331C9
:2031C00021020302230203241E191512100E0C0B0A09090908080807060605040404030480
:2031E00004040000000000000000000027262123252325242722292A2A1C27282B333227BD
:2032000025222C333130370000000000000000000000000001FFFFE000000000000001FF91
:20322000FFF000000000000001FFFFF800000000000001FFFFFE00000000000003FFFFFFAB
:2032400000000000000003FFFFFFF000000000000FFFFFFFFE00000003FFFFFC000007FC74
:2032600000007FFFFFFC000000000000001FFFFE000000000096918C87827D78736E69645A
:203280005F5A55504B46413C37322D28231E19140F0A050004090E13181D22272C31363BFE
:2032A00040454A4F54595E63686D72777C81868B90959A9FA4A9AEB3AFAAA5A09B968F89C3
:2032C000837E78736E69645F5A55504B47423E3935302C27231F1B16120E09050103070BAF
:2032E0001014191D22262B2F34393D42474C51565B60656B70757B80868C92979DA3A9AF6E
:20330000B2ACA6A09A948F827C76706B65605C57524E4A46413D3936322E2A26221F1B1745
:2033200013100C08040102060A0E12161A1E22262B2F33383D41464B4F54595E64696F74AB
:203340007A80878D949BA2AAB1AEA69F979089826F68635E5955514D4946423F3C3835323F
:203360002E2B2824211E1A1714100D0A0603000306090D1014181C2024282C3034393D41CA
:20338000464A4F54585D62676D737980878F98A2ACB0A59A90867D766F55514D4A47444137
:2033A0003F3C3A383533312E2B292623201D1A1713100D0A070401010306090D1013171A94
:2033C0001E22262A2E32363A3E42464A4E53575B5F64696E757C85909FB2A08D7D70676058
:2033E0005A553E3C3A393736343332302F2E2C2A292724221F1C191613100D0A0704020001
:203400000305080A0D1013161A1D2125292D3135383C4043464A4D505356595B5E61656905
:203420006F826D544D4A474442403E2E2E2D2C2C2B2A2A2929282726252423211F1C1A17D8
:2034400014100D0A07040101030507090C0E1013161A1D2124282C3033373A3D40424447CB
:20346000484A4A4B4A48443D3019021621282B2D2E2F2E2E06090C0F121517191B1C1B186C
:2034800011040E2231383C3C3C3A3835322F2B2824201C1915110D09050102060A0E11156E
:2034A000181C1F222527292A2B2B2926211911080004080A0A0A0807040200030616181A70
:2034C0001C1E20211F1712516063625F5D5956524E4A46423E3935312C2824201B17130E0E
:2034E0000A060102060A0F13171B1F23262A2D313437393C3D3F3F3E3D39352F28211C1736
:20350000151313131416A8ADB2B0ABA6A19C97928D88837E79746F6A65605B56514C47424D
:203520003D38332E29241F1A15100B060103080D12171C21262B30353A3F44494E53585D68
:2035400062676C71767B80858A8F94999EA3A8204D544B2000204D544B31392000207562E7
:203560006C6F782000B56206010300010601124F24505542582C34312C312C303030332CE2
:20358000303030312C33383430302C302A32360D0A245047434D442C31362C302C302C3004
:2035A0002C302C302A36410D0A24505352463130302C302C33383430302C382C312C302ADD
:2035C00033430D0A00C01200000096000000C2010000E1000080250000010054595045006A
:2035E00000000000000000000000000002000000803F01024E415646494C5445520000005C
:20360000000000000003000000004100FF0000000000000000000000000000000000000067
:20362000000000000100454E41424C45000000000000000000000003000000803F040152C9
:20364000414449555300000000000000000000000400000048430402414343454C00000007
:20366000000000000000000000080000007A4400FF00000000000000000000000000000085
:20368000000000000000000024504D544B3232302C3230302A32430D0A24504D544B3331FE
:2036A000332C312A32450D0A24504D544B3330312C322A32450D0A24504D544B3339372C89
:2036C000302A32330D0A004572726F723A2041505F48414C5F4156523A3A415652416E6136
:2036E0006C6F67496E206F7574206F66206368616E6E656C730D0A00474F494E4720444FBA
:20370000574E20464F522041205245424F4F540D0A0050414E49433A207363686564756CED
:2037200065723A3A73797374656D5F696E697469616C697A65642063616C6C65646D6F72D1
:2037400065207468616E206F6E63650050414E49433A2041565253656D6170686F72653AE8
:203760003A74616B6520757365642066726F6D20696E736964652074696D65722070726F77
:20378000636573730050414E49433A205350493020777269746520636F6C6C6973696F6E63
:2037A0000050414E49433A2053504930207472616E7366657220636F6C6C6973696F6E00B7
:2037C000040154435F5859000000000000000000000000130000002040040254435F5A0074
:2037E00000000000000000000000000017000000A04000FF000000000000000000000000D3
:2038000000000000000000000000006779726F5B25755D20646964206E6F7420636F6E76FD
:20382000657267653A20646966663D2566206470730A002A00496E6974204779726F00201A
:20384000002A00496E697420416363656C0043616C6962726174696F6E204641494C454485
:203860000A0043616C6962726174696F6E207375636365737366756C0A005363616C696E12
:20388000675B25755D3A20252E326620252E326620252E32660A004F6666736574735B25B0
:2038A000755D3A20252E326620252E326620252E32660A00506C6163652076656869636C51
:2038C0006520255320616E6420707265737320616E79206B65792E0A006F6E2069747320D5
:2038E0004241434B006E6F7365205550006E6F736520444F574E006F6E2069747320524928
:203900004748542073696465006F6E20697473204C4546542073696465006C6576656C008A
:203920004E6F20494E53206261636B656E647320617661696C61626C6500546F6F206D6184
:203940006E7920494E53206261636B656E647300546F6F206D616E7920616363656C730089
:20396000546F6F206D616E79206779726F7300020050524F445543545F49440000000000DD
:2039800000001F000000000005014143435343414C000000000000000000002100000000F7
:2039A0000005024143434F464653000000000000000000002D000000000005034759524F95
:2039C0004646530000000000000000000039000000000001044D5055364B5F46494C544584
:2039E00052000000000045000000000000FF00000000000000000000000000000000000031
:203A000000000000004661696C656420746F20626F6F74204D505536303030203520746960
:203A20006D6573004D5055363030303A20556E61626C6520746F206765742073656D61703F
:203A4000686F72650056616C75657320646F65736E2774206D617463683B207772697474B2
:203A6000656E3A20253032783B20726561643A202530327820006661696C656420746F2022
:203A8000626F6F74204D50553630303020352074696D65730054696D6564206F7574207701
:203AA000616974696E6720666F72207573657220726573706F6E7365000200544F54414C2F
:203AC0000000000000000000000000000500000000000101524553544152540000000000BA
:203AE000000000000007000000000000FF00000000000000000000000000000000000000C0
:203B00000000000041505F4D6F746F72733A206661696C656420746F2063726561746520BB
:203B20007468726F74746C65206375727665000101544352565F454E41424C450000000083
:203B400000002E000000803F0102544352565F4D49445043540000000000002F0000005097
:203B6000420103544352565F4D415850435400000000000030000000BA4202055350494E27
:203B80005F41524D454400000000000000310000008C4200FF00000000000000000000005F
:203BA000000000000000000000000000000102030405060701004D4F4445000000000000C3
:203BC000000000000000003100000000000501524554524143540000000000000000000099
:203BE00042000000000005024E45555452414C000000000000000000004E0000000000050E
:203C000003434F4E54524F4C000000000000000000005A00000000000104535441425F5246
:203C20004F4C4C00000000000000002E00000000000105535441425F54494C5400000000A3
:203C4000000000002F00000000000106535441425F50414E00000000000000000030000096
:203C6000000000010752435F494E5F524F4C4C000000000000003200000000000208414E4E
:203C8000474D494E5F524F4C00000000000000350000A08CC50209414E474D41585F524FC0
:203CA0004C00000000000000370000A08C45010A52435F494E5F54494C54000000000000DE
:203CC00000330000000000020B414E474D494E5F54494C00000000000000390000A08CC578
:203CE000020C414E474D41585F54494C000000000000003B0000A08C45010D52435F494E6D
:203D00005F50414E0000000000000000340000000000020E414E474D494E5F50414E000029
:203D200000000000003D0000A08CC5020F414E474D41585F50414E000000000000003F000B
:203D400000A08C4501104A535449434B5F5350440000000000000041000000000000FF0093
:203D60000000000000000000000000000000000000000000000042616420636F6E7665728F
:203D800073696F6E207479706520272553270A00556E6B6E6F776E20636F6E76657273691F
:203DA0006F6E20272553270A0025733A2025660A0025733A20256C640A0025733A20256443
:203DC0000A0025733A2025640A00454550524F4D2066756C6C000100524F4C4C000000007F
:203DE00000000000000000000000000000803F01015049544348000000000000000000008A
:203E0000000001000000004001025448524F54544C450000000000000000000300000040A5
:203E2000400103594157000000000000000000000000000002000000804000FF000000008C
:203E40000000000000000000000000000000000000000001005F54595045000000000000C0
:203E600000000000000000000000000001015F50494E0000000000000000000000000001F9
:203E800000000080BF04025F5343414C494E470000000000000000000600000040400403F0
:203EA0005F4F4646534554000000000000000000000A000000000001045F46554E435449A5
:203EC0004F4E00000000000000000E000000000002055F4D494E5F434D00000000000000FE
:203EE0000000000F000000A04102065F4D41585F434D000000000000000000001100000085
:203F00002F4401075F53544F505F50494E00000000000000000300000080BF02085F5345F8
:203F200054544C455F4D530000000000000004000000000001095F524D45545249430000C6
:203F40000000000000000002000000803F00FF0000000000000000000000000000000000A1
:203F6000000000000000010050494E000000000000000000000000000000000000504101C7
:203F80000150494E32000000000000000000000000000100000080BF00FF000000000000C8
:203FA00000000000000000000000000000000000005363686564756C6572206F7665727214
:203FC000756E207461736B5B25755D202825752F2575290A005363686564756C65722073C9
:203FE0006C6970207461736B5B25755D202825752F25752F2575290A000100444542554748
:2040000000000000000000000000000000000000000000FF000000000000000000000000A1
:20402000000000000000000000000050414E49433A2044617461466C617368205350494403
:2040400065766963654472697665722073656D6170686F7265206973206E756C6C0050419C
:204060004E49433A2044617461466C61736820535049446576696365447269766572206E4E
:204080006F7420666F756E6400666C6967687420706C616E20726563656976656400666C7F
:2040A0006967687420706C616E207570646174652072656A656374656400327C8900EDD983
:2040C0006877000000590000000000000000D69FDCA81817AA90437327F6B968EDF4DED4BF
:2040E00009FEE61C1C84DDE80B992927000000000F03000000000099B7335276941500F365
:204100007C000026149E988F0000006A31161D0CF1E900E7B73F3600000000000000AF6648
:204120009ED0385DD36C20B95400007C77044C80387486EDCBFA57CBDC19E2001DDF550619
:20414000E5CB01000000000000000000002A310086DBD0BC5416131586004E44BD7F9A15D1
:20416000159001EA49B51653A78AEAF02FBD34AE000000000000000000000000000000006F
:2041800000000000000000000000000000000000000000000000000000000000000000001F
:2041A00000000000000000000000000000000000000008CC31AA2C532E000800000000009B
:2041C00000000000000000000000000000000005420000010146554E4354494F4E00000030
:2041E0000000000000001D000000000000FF000000000000000000000000000000000000A3
:20420000000000000002004D494E00000000000000000000000000000A000080894402015E
:204220005452494D000000000000000000000000000C000080BB4402024D415800000000CD
:20424000000000000000000000000E000080ED4401035245560000000000000000000000AE
:2042600000000010000000803F0205445A00000000000000000000000000000011000000B9
:20428000000000FF000000000000000000000000000000000000000000000000000000001F
:2042A000060300000676090200760F5A000100D00F300000000000000503000005CA09029D
:2042C00000CA0E96000100600FA0002C76D888674F0823C1DFAE59B1B796E5E453C63A516B
:2042E000997696E6C28426898C9B62407C6FFCBC9C9F40BAA56FA590055A2A5C936B6C679E
:204300006DC11BE0E40D47F520E6B5D0ED902E009435770080841E0000204E000000C83346
:20432000333333986E128341EF8D21893BE655CFFEE6DBD1844B38F77C1D90A4BBE424324D
:2043400084725E8100C9F1ECA1E53DDCDFE1E3E6E8EBEDEFF2F4F7F9FCFE000305080A0C15
:204360000F111416181B1D202224276E616E00696E66000102102020080810204010204059
:20438000800201020108040201010204081020408080402010080402018004020180402023
:2043A000100804020108040201010204081020408001020408102040804005050505070571
:2043C00008080808020202020A0A0808040404040101010101010101030303030303030361
:2043E000040707070C0C0C0C0C0C0C0C0202020206060606060606060B0B0B0B0B0B0B0BB4
:2044000005000020002300260029002C002F0032000001000003010601090100002200251B
:204420000028002B002E003100340002010000050108010B0100002100240027002A002DB5
:20444000003000330001010000040107010A01000D94A7080D941A110D9469C80D94C8BECA
:204460000D94EC2E0D94A1270D94D0CB0D9420C80D94B1370D9483390D945D300D944A2F25
:204480000D94F37E0D94BB220D9416800D945FC20D945B650D942F2A0D947C7B0D940E2AC7
:2044A0000D9403300D9453310D9455C50D943D2B0D949C970D94462F0D94E7990D94B26879
:2044C0000D94D0BB0D94B38E0D9412BB0D94E8780D9462330D9443450D9486520D94BD2DFC
:2044E0000D94FE8F0D949E1F0D94F46B0D9488A90D94AA390D949B2B0D94C3520D94A7274E
:204500000D94418F0D9443220D9417300D941B370D94C1300D9464680D94521A0D94F92182
:204520000D94709C0D94D5990D94618F0D9442230D94A4260D94E42B0D948F1F0D943333B7
:204540000D94405D0D9454220D94DA300D945B1E0D943AC50D94F62E0D9451310D946E1793
:204560000D94F00F0D94521E0D945B170D9411030D94A3B10D940C420D9432370D944A07E2
:204580000D946E260D942F680D94B41A0D9465920D94FB630D9497950D9490690D94F89810
:2045A0000D94F5C30D9426220D94ECC70D94728E0D945E220D94BA1A0D94AB1A0D942F0DEB
:2045C0000D9473790D94B0350D94A3AB0D948F230D94CE1E0D941A970D94152A0D94D578D9
:2045E0000D946E2A0D942DCC0D943F340D94E91F0D9499620D94892F0D9475170D94EA7905
:204600000D945E2F0D94F92F0D94FAB50D94F98E0D9483C70D9417A80D94928E0D94C28B31
:204620000D94F5CB0D941BCC0D9437CA0D94B0660D94B93C0D9489340D9446260D94D42F93
:204640000D94AD940D94AF8E0D94722F0D94BA970D94592C0D945E690D94FF350D9413202F
:204660000D9442C50D94322F0D941D9F0D94C6C20D9412C50D94247F0D947B170D942A2F21
:204680000D9465840D94DA1A0D9455AA0D9483930D944B1A0D94B5300D94552D0D94242F01
:2046A0000D9462000D94B0410D94106B0D9427670D94296A0D9487570D9412300D94E97882
:2046C0000D94752D0D94B7BF0D94A7360D9454270D946A9C0D94830A0D94A32F0D94442693
:2046E0000D94362D0D941D940D9408300D9441CC0D940F6A0D94EB820D943A2A0D94762F6A
:204700000D942D330D94F6300D943E900D94F0010D94D02F0D94322A0D9414CB0D94B6411B
:204720000D94DB6A0D9421150D9423A40D94A0120D9465A70D94013E0D9430300D94FC18BE
:204740000D94CC990D94D6B70D9480330D9485680D94052F0D946B370D9435140D941D96ED
:204760000D940CA50D9432C50D941A540D946E1A0D944C440D94122A0D9400BE0D941E6982
:204780000D9452070D94132F0D94638D0D9470C50D9442120D946A870D94EA260D949BBAA7
:2047A0000D94D1360D94F22A0D94D1390D9419AB0D9447260D9492230D940E7B0D9413350D
:2047C0000D944D9D0D9439680D94E5200D94BA300D942B300D9443760D94EA770D947A2F39
:2047E0000D9406A20D948EA90D9454250D94A6A60D94349D0D94C12F0D947E3E0D94A48C60
:204800000D940F370D94B18E0D94CC360D94F2320D940AB80D94372B0D942F6B0D9409B06E
:204820000D94A1A80D9455540D946BAF0D9461170D94EF310D9437580D945A2F0D949368B9
:204840000D94E2CB0D94E1990D94D67B0D94A3330D9461850D949E270D9451250D940E686B
:204860000D947E190D94682F0D94CB9A0D94936A0D948B390D942C690D942AA10D94AB379A
:204880000D94ED7E0D947ABB0D94CF5B0D94CE070D9448070D94C24F0D949C270D94EC9BC7
:2048A0000D941DA40D94002F0D942C220D946BB00D94F2B70D94D7680D9467C70D94032757
:2048C0000D9402B80D9402C50D9460190D9499A20D949FA20D9411A80D94F9350D944C0720
:2048E0000D94FB2E0D94A4270D94820F0D94BC1F0D9435300D949D270D944D250D94AB1EEC
:204900000D94563B0D944D6A0D944D370D9443070D943D220D94DC7B0D9449C10D94CFB238
:204920000D942E2F0D9403190D9474810D94096A0D94763C0D94D7360D94FEB70D94FD21FC
:204940000D94CB2F0D94866C0D948A2F0D947DC70D94C5340D94EBA80D9431200D94F7365C
:204960000D94BE300D947E690D945D8E0D94FC390D9407370D94DB990D94D19A0D94B72F37
:204980000D94CE360D94502A0D94D7690D9426300D946E940D94B5340D94ECB10D94E77814
:2049A0000D94192A0D949B270D94A12B0D9429C50D94FC340D9459310D94CBB60D94AA7AD1
:2049C0000D94F56A0D94843E0D94661E0D94A81F0D9421770D9463300D94E72C0D94F6B778
:2049E0000D943C2F0D9492290D94C1390D94861A0D9431580D94A1360D94E7B80D94A06DE3
:204A00000D94382F0D9407200D94E6590D94E9660D944A870D943A300D94A2270D940ACC98
:204A20000D945D6A0D94D4830D940E4F0D9496230D94D8260D94A9570D94F28C0D945EA2BE
:204A40000D9444190D9407930D945C300D94B9670D9458AB0D94F4530D94FA210D94DDC9A0
:204A60000D94F1AD0D947C220D94E42C0D94575F0D942E5B0D94A7680D9403A30D944B198A
:204A80000D94A82F0D949E9B0D949E220D946A520D947E460D94B02E0D94682D0D94ADC5D9
:204AA0000D945E9C0D9493390D94A4790D948B1E0D9435230D94795B0D94AE380D94708E52
:204AC0000D9432660D9402980D9474B40D940F780D94802F0D94A7AA0D9488A50D94F12DA2
:204AE0000D94AD2F0D94E5A80D94FF670D94D0220D941FB80D94F1030D946A910D949F1A6E
:204B00000D94D09C0D9421300D9482A50D941C000D9480520D94B16A0D94CD670D94B5AB0C
:204B20000D94CC6A0D9400910D943ABA0D9416280D9414260D9422600D947B390D94793754
:204B40000D9408D80D94A82C0D9496390D94D91E0D9406B80D9468100D94588E0D94BC2FCC
:204B60000D94890A0D94AA350D94DE2B0D94202F0D94BABC0D94746A0D9475520D947F3396
:204B80000D944B4C0D9488310D94D3910D9420260D94E91D0D9431270D9465390D941C30CB
:204BA0000D9405360D94E14B0D9486340D947B360D9467170D9417220D946B360D9413A40C
:204BC0000D94B0630D9443200D9417270D94459C0D94BB490D94A1080D94680A0D94CB8BC3
:204BE0000D941A630D94761E0D946EA20D94402F0D9476220D9452190D947DAE0D9451BBE3
:204C00000D94C0530D94DB0D0D94C62F0D94842F0D94642F0D9481390D94D3320D94C0696E
:204C20000D941B920D943E190D941A260D945D240D94BDCD0D94944A0D94502F0D94FA3195
:204C40000D94A8380D942AB60D94F72D0D94B4300D94302D0D94EEB70D9429B10D94662B17
:204C60000D943F6A0D94809B0D94EF1D0D941F0F0D94DF780D94C6D10D94D2B00D94F63593
:204C80000D94156A0D9498A40D94E7700D9472CB0D942D800D945E680D94CD410D943431D7
:204CA0000D944C690D940A370D94BF750D9440300D9401320D94908E0D94EEA50D94485EC8
:204CC0000D94B5B70D94C6300D94ACA30D944B1E0D94DB2F0D9459220D94AD670D940D30DC
:204CE0000D941D310D94BD260D9476190D94507B0D94E5C40D94ACC60D941FAC0D9486C7EE
:204D00000D94A27F0D94A9330D94B22F0D9409A30D9424790D94611A0D948A360D947E3972
:204D20000D94A23A0D940E8F0D9481AD0D94C8560D94D3670D946C2F0D94961F0D94EE9995
:204D40000D94D21F0D94D2360D9425AC0D942E930D94EE680D944F2F0D9409190D94B27B9D
:204D60000D9403260D9467260D94FAB70D94DB780D94BC840D94162F0D94869B0D9431B4E6
:204D80000D943F0E0D9486260D94F6180D94E12C0D94D52F0D94CE7B0D94402A0D94863189
:204DA0000D945BAA0D94FDB00D94FC350D946C2B0D944E050D94A9270D941AAD0D94ACA635
:204DC0000D949DB40D94FDAC0D94D76D0D9470B60D948C5E0D94F8B60D94F48C51A37A255D
:204DE000F22458263E266C24C024EE22A0239222FDA611241FBECFEFD1E2DEBFCDBF00E091
:204E00000CBF15E0A0E0B2E0E4E5F7EB03E00BBF02C007900D92AE36B107D9F717E1AEE678
:204E2000B5E001C01D92A53FB107E1F71DE4C0EFDDE400E006C022970109FE010BBF0F94B3
:204E4000B3D9CC3DD10780E00807A9F70E9405950D9499DB0C9400000895E0913811F0910D
:204E600039110084F185E02D88E391E119950895A9E1B0E0EEE3F7E20D941DD9962FE9E1CF
:204E8000BE016F5F7F4FDB01FE2F1D92FA95E9F7F3EAF983F5E9FA83EB838C839D832E838E
:204EA0003F8348875987EA86FB860C871D87AE86BF86C88AD98A8FA198A5A9A5BAA58A8BFC
:204EC0009B8BAC8BBD8B8BA59CA5ADA5BEA58E8B9F8BA88FB98FE0913E12F0913F1200842E
:204EE000F185E02D49E150E08EE392E119956996EAE00D9439D9A6E0B0E0E1E8F7E20D946E
:204F000025D9BE016F5F7F4F96E0FB0111929A95E9F793EA998395E99A8393E09B838C8340
:204F20008091C7129091C8129E838D83E0913E12F0913F120084F185E02D46E050E08EE3FA
:204F400092E119952696E2E00D9441D9A5E0B0E0ECEAF7E20D9425D9DE01119695E0FD019B
:204F600011929A95E9F793EA998395E99A8393E19B838C836D83E0913E12F0913F120084A3
:204F8000F185E02D45E050E0BD018EE392E119952596E2E00D9441D9A0917215B091731530
:204FA000ED91FC9111970280F381E02DCD01199508958091721590917315DC01ED91FC91F9
:204FC0000480F581E02D199508958091721590917315DC01ED91FC910680F781E02D19959D
:204FE00008958F929F92AF92BF92CF92DF92EF92FF928090330690903406A0903506B090FE
:20500000360620E030E0A901C501B4010F94D3D3882309F482C0C0902306D0902406E09079
:205020002506F090260620E030E0A901C701B6010F94D3D3882309F470C080922A149092CD
:205040002B14A0922C14B0922D1480912F0690913006A0913106B091320680932E14909326
:205060002F14A0933014B093311480912B0690912C06A0912D06B0912E0680933214909304
:205080003314A0933414B09335148091270690912806A0912906B0912A06809322159093F7
:2050A0002315A0932415B0932515C0924814D0924914E0924A14F0924B1480911F0690915A
:2050C0002006A0912106B091220680934C1490934D14A0934E14B0934F1480911B06909164
:2050E0001C06A0911D06B0911E068093501490935114A0935214B093531480911706909144
:205100001806A0911906B0911A068093261590932715A0932815B0932915FF90EF90DF90A5
:20512000CF90BF90AF909F908F9008958F929F92AF92BF92CF92DF92EF92FF928090330686
:2051400090903406A0903506B090360620E030E0A901C501B4010F94D3D3882309F483C0A5
:20516000C0902306D0902406E0902506F090260620E030E0A901C701B6010F94D3D38823B8
:2051800009F471C080922A1490922B14A0922C14B0922D142DEC3CEC4CEC5DE3C501B40107
:2051A0000F94A0D660932E1470932F14809330149093311480912B0690912C06A0912D06A3
:2051C000B0912E068093321490933314A0933414B09335148091270690912806A0912906A3
:2051E000B0912A068093221590932315A0932415B0932515C0924814D0924914E0924A1473
:20520000F0924B142DEC3CEC4CEC5DE3C701B6010F94A0D660934C1470934D1480934E1430
:2052200090934F1480911B0690911C06A0911D06B0911E068093501490935114A093521422
:20524000B09353148091170690911806A0911906B0911A068093261590932715A093281569
:20526000B093291503C062E08EE070DEFF90EF90DF90CF90BF90AF909F908F900895A0E017
:20528000B0E0E5E4F9E20D9417D9EC018B0128813981FB0180819181121613061CF497FF77
:2052A00007C010C02115310519F01816190654F0AC0197FF04C044275527481B590B493023
:2052C00057401CF0998388839BC0B901882777FD8095982FE090B212F090B3121216130636
:2052E0000CF046C00F9475D44B015C012DEC3CEC4CE45DE30F94A0D62B013C011E141F048F
:20530000ACF4B701882777FD8095982F0F9475D46B017C019B01AC01B201C3010F9450D6D8
:2053200018168CF026019E2D8F2D0FC020E030E040E85FE30F9450D618162CF0412C512CCF
:2053400090E88FE302C0962D872D9201492F582FC501B4010F94F5D20F9442D47983688313
:20536000F80120813181621773070CF047C045C00F9475D44B015C0190582DEC3CEC4CE4F8
:205380005DE30F94A0D62B013C011E141F04ACF4B701882777FD8095982F0F9475D46B0147
:2053A0007C019B01AC01B201C3010F9450D618168CF026019E2D8F2D0FC020E030E040E888
:2053C0005FE30F9450D618162CF0412C512C90E88FE302C0962D872D9201492F582FC50113
:2053E000B4010F94F6D20F9442D479836883F80120813181261737070CF4B9017983688385
:20540000CDB7DEB7E0E10D9433D9EDEBF5E08081887F8560808382E390E09093D605809382
:20542000D5051092C0051092BF058091EC059091ED059093DA058093D9050895EDEBF5E073
:205440008081877C8862808382E390E09093D8058093D7051092C2051092C1058091EE05C2
:205460009091EF059093DC058093DB0508958B3039F020F48350853028F402C0803111F46F
:2054800081E0089580E00895823010F481E0089580E008958091FC0B80FF18C08091EA11E5
:2054A0009091EB11039794F08091BF1181FD0EC08091EE0B83FD0AC09091B80590FD06C0FF
:2054C00085FB882780F991E08927089580E0089520E030E0FC01E20FF31F1282138214829A
:2054E00015822C5F3F4F2C313105A1F7FC01168E0895FC01968D81E0890F868FDF0124E081
:20550000929FA00DB11D112412964D935D936D937C931597873008F0168ECB01BA01089500
:20552000A7E1B0E0E6E9FAE20D9423D98E010F5F1F4F87E1D8011D928A95E9F783EA898338
:2055400085E98A8381E08B838091721590917315DC01ED91FC910480F581E02D19956C8394
:205560007D838E839F8360914F097091500980915109909152090F9442D4798768878091B5
:205580001A0E90911B0E9B878A87609153097091540980915509909156090F9442D47D870F
:2055A0006C8780911E0E90911F0E9F878E8760915709709158098091590990915A090F94E5
:2055C00047D4798B688B8091220E9091230E9B8B8A8B8CE09EE00E940CEB20E030E048EC24
:2055E00052E40F94A0D60F9447D47D8B6C8B8CE09EE00E9445EB20E030E048EC52E40F94C6
:20560000A0D60F9447D47F8B6E8BE0913E12F0913F120084F185E02D47E150E0B8018EE337
:2056200092E119956796E4E00D943FD98CE796E00F94648784EE96E00D941706CF93DF93DE
:20564000EC0180911C0C882329F0BE018CE19CE00F9495BA8091F30C882329F0BE0183EFC1
:205660009CE00F9495BADF91CF9108958CE190E0E5CF80E090E0E2CF80911C0C882331F038
:2056800060E070E08CE19CE00F94B4BC8091F30C882331F060E070E083EF9CE00D94B4BC13
:2056A0000895A0E0B0E0E7E5FBE20D941FD98091A60A9091A70AA091A80A609193127091EE
:2056C00094129B01442737FD4095281739074A0744F49C014A2F552747FD5095CA01B901CC
:2056E00004C0882777FD8095982F0F9475D48B01D82FC92F8CE496E00E945FCB80FF26C059
:205700002091590630915A0640915B0650915C06609151067091520680915306909154065D
:205720000F94F5D220E030E048EC52E40F94A0D66B017C019B01AC01B8018D2F9C2F0F9457
:20574000D3D387FD03C08601DE2DCF2DB8018D2F9C2FCDB7DEB7E8E00D943BD90F931F93A4
:20576000CF93DF93EC018B0180911C0C882331F0AB01BE018CE19CE00F944BBB8091F30CCA
:20578000882331F0A801BE0183EF9CE00F944BBBDF91CF911F910F91089581E692E10D9406
:2057A0001F8C8091A612882321F088E390E10D94CE070895A0E0B0E0E0EEFBE20D941BD97A
:2057C0005A01E901E12CF12C00E81FE320E030E0A9010F94E0596B017C01B501882777FD18
:2057E0008095982F0F9475D49B01AC01C701B6010F94A0D64B015C01A701960160E070E088
:2058000080E89FE30F94F5D26B017C01BE01882777FD8095982F0F9475D49B01AC01C70190
:20582000B6010F94A0D69B01AC01C501B4010F94F6D20F9442D4CB01CDB7DEB7ECE00D945E
:2058400037D9A8E0B0E0E7E2FCE20D9415D91C014A015B0109831A832B833C83AADB6B019F
:205860007C018091780590917905A0917A05B0917B05A7019601281B390B4A0B5B0BDA01B1
:20588000C9010091BE0A1091BF0A893E9340A105B10550F1B801882777FD8095982F0F94E9
:2058A00075D4A50194010F94F6D22B013C018091A60A9091A70AA091A80A9C014A2F552788
:2058C00047FD5095CA01B9010F9475D49B01AC01C301B2010F94F5D26093B90A7093BA0A87
:2058E0008093BB0A9093BC0AC0927805D0927905E0927A05F0927B052101662457FC609452
:20590000762C37FE05C080914B0B82FF08C025C02114310411F180914B0B83FD1EC0C30161
:20592000B2010F9475D429813A814B815C810F94A0D69B01AC016091B90A7091BA0A8091CE
:20594000BB0A9091BC0A0F94F6D26093B90A7093BA0A8093BB0A9093BC0AB801882777FD16
:205960008095982F0F9475D46B017C01209174083091750840917608509177080F94F6D2F1
:2059800069837A838B839C8320917008309171084091720850917308C701B6010F94F5D2FE
:2059A0009B01AC016091B90A7091BA0A8091BB0A9091BC0AE980FA800B811C810F94E05980
:2059C0006B017C016093B90A7093BA0A8093BB0A9093BC0A6091BE0A7091BF0A882777FDFA
:2059E0008095982F0F9475D49B01AC01C701B6010F94F5D26B017C018091A60A9091A70A31
:205A0000A091A80A9C014A2F552747FD5095CA01B9010F9475D49B01AC01C501B4010F9410
:205A2000F5D29B01AC01C701B6010F94F5D2209195123091961240919712509198120F9404
:205A4000A0D6E12CF12C06E113E420E030E046E153EC0F94E0599B01AC01C301B2012D8306
:205A60003E834F8358870F9475D42D813E814F8158850F94F6D22896E2E10D9431D9A0E097
:205A8000B0E0E5E4FDE20D941BD98B017A01E90144E951E16CE67EEE0F94235A6C0144E971
:205AA00051E16CE67EEEC8010F94235A8C016091341570913515643981E1780731F4F70160
:205AC000D182C0821983088346C080917C0590917D0568177907C1F070937D0560937C0526
:205AE000882777FD8095982F0F9475D420E030EA4CE855E40F94DAD36093060270930702DD
:205B000080930802909309028090060290900702A0900802B0900902B601882777FD809585
:205B2000982F0F9475D4A50194010F94A0D60F9442D4F70171836083B801882777FD8095E5
:205B4000982F0F9475D4A50194010F94A0D60F9442D479836883CDB7DEB7ECE00D9437D908
:205B6000A0E0B0E0E6EBFDE20D941BD9EC016A017B010091B2121091B31220E030E0A90187
:205B8000C701B6010F9450D64091C3055091C4056091C5057091C60587FD12C0CB01BA0116
:205BA0009058A70196010F94A0D64B015C0120E030E040E752E4C701B6010F94F6D211C0D4
:205BC000CB01BA019058A70196010F94A0D64B015C01A701960160E070E080E792E40F9406
:205BE000F5D29B01AC0160E070E08AEF93E40F94DAD320E030E040E85FE30F94F6D29B0144
:205C0000AC01C501B4010F94A0D6288139817901E00EF11EA901401B510B8A010F9442D4C4
:205C2000DC01CB01A701B8010F94235A998388834091B4125091B51266277727641B750BAA
:205C40000F94235A99838883CDB7DEB7ECE00D9437D98F929F92AF92BF92EF920F931F93AE
:205C600080911007882309F455C081508093100780919B16826080939B166091ED127091EB
:205C8000EE12882777FD8095982F0F9475D420E030E04AE755E40F94DAD30F94455A4B01C1
:205CA0005C0160910A1370910B13882777FD8095982F0F9475D420E030E04AE755E40F9452
:205CC000DAD30F94455A8B019C0180913E0E826080933E0EE0910C0EF0910D0EEE24E3945E
:205CE000809110078111E12C00A4F1A5E02DB501A4018CE09EE019958091100781110AC01F
:205D000080913E0E8D7F80933E0E80919B168D7F80939B161F910F91EF90BF90AF909F909D
:205D20008F9008958091FB0B982F9D7F953029F484E597E00E9421DC10C0833051F08630D2
:205D400041F0843099F48091280B9091290B019769F484E597E00E943EDC6093390B70936D
:205D60003A0B80933B0B90933C0B08951092390B10923A0B10923B0B10923C0B0895A5E2BC
:205D8000B0E0E5ECFEE20D9423D98E010F5F1F4F25E2F80111922A95E9F7B8010F94EE72BC
:205DA0006091CF0D7091D00DA8018EE392E10F9423B1A596E4E00D943FD9CF93C82F6BEECA
:205DC00078E081E090E0CADC88E391E1CC2319F00E94C0FA02C00E9442FC6CEC78E081E010
:205DE00090E0BCDCCF910895CF93DF93C8E2D0E08091321590913315DC01ED91FC91028441
:205E0000F385E02D63E278E019952197209781F780913215909133150F9495CDDF91CF9135
:205E20000895CF92DF92EF92FF920F931F938091721590917315DC01ED91FC910680F78166
:205E4000E02D199520911507309116074091B5055091B6052417350779F03093B6052093A4
:205E6000B5056093B1057093B2058093B3059093B4051092B0053DC020910E022223C9F14A
:205E80000091B1051091B2052091B3053091B4056B017C01C01AD10AE20AF30A97018601DA
:205EA00041E8C41644E8D4064EE1E406F10418F041E04093B0054091B0054423D1F0013437
:205EC00012442F403105A8F06093B1057093B2058093B3059093B40580914C0B80FF09C075
:205EE00060E081E49BE00F945D7981E49BE00F94F97A1F910F91FF90EF90DF90CF9008954A
:205F00008DE298E00E9483BB61E081E49BE00D94AC7A2F923F924F925F926F927F928F923B
:205F20009F92AF92BF92CF92DF92EF92FF920F93CF93DF93CDB7DEB7A8970FB6F894DEBFFE
:205F40000FBECDBF1C01E0911B108CE0E89FF0011124EB51F04F80859185A285B3858D8F05
:205F60009E8FAF8FB8A384819581A681B78189A39AA3ABA3BCA3C080D180E280F380809055
:205F8000160E9090170EA090180EB090190E4090120E5090130E6090140E7090150E8091A4
:205FA0000E0E90910F0EA091100EB091110E8DA39EA3AFA3B8A70E94D92769837A838B831D
:205FC0009C838DA19EA1AFA1B8A58D839E83AF83B88749865A866B867C868D869E86AF86D8
:205FE000B88AC98ADA8AEB8AFC8A89A19AA1ABA1BCA18D8B9E8BAF8BB88F8D8D9E8DAF8D5C
:20600000B8A1898F9A8FAB8FBC8F07E22CE1AE014F5F5F4F6EE1C1010F94A6C6A8960FB63D
:20602000F894DEBF0FBECDBFDF91CF910F91FF90EF90DF90CF90BF90AF909F908F907F90A7
:206040006F905F904F903F902F900895A6E2B0E0ECE2F0E30D9415D91C018091EA119091B6
:20606000EB1102974CF08090E1119090E211A090E311B090E41104C00E94D9274B015C01D2
:206080002091220E3091230E3E8F2D8FC0900912D0900A12E0900B12F0900C1220E030E082
:2060A00048EC52E460910D1270910E1280910F12909110120F94A0D60F9442D46BA37CA3D1
:2060C0008DA39EA32091A60A3091A70A4091A80A552747FD5095AAE0B0E00F9474D72B0120
:2060E0003C012091F3113091F4114091F511552747FD50950F9474D72091AD0A3091AE0A9D
:206100004091AF0A5091B00A2F8F38A349A35AA30091A90A1091AA0A2091AB0A3091AC0A62
:2061200089829A82AB82BC820D831E832F8338872F8D38A149A15AA129873A874B875C878B
:206140006D877E878F87988B498A5A8A6B8A7C8A20E030E048EC52E4C701B6010F94A0D649
:206160000F9442D47E8B6D8B4BA15CA1588F4F8B20E030E048EC52ECC701B6010F94A0D6A1
:206180000F9442D47A8F698F8D8D9E8D9C8F8B8F08E62CE1AE014F5F5F4F61E2C1010F940D
:2061A000A6C6A696E2E10D9431D94F925F926F927F928F929F92AF92BF92EF92FF920F934D
:2061C0001F93CF93DF93CDB7DEB764970FB6F894DEBF0FBECDBF7C016091C00A7091C10ADA
:2061E000882777FD8095982F0F9475D420E030E048EC52E40F94DAD34B015C018091A60A80
:206200009091A70AA091A80A9C014A2F552747FD5095CA01B9010F9475D420E030E048EC59
:2062200052E40F94DAD32B013C018091291390912A136AE070E00F94B3D78B016091220E50
:206240007091230E8091240E9091250E24E630E040E050E00F94E8D7CA01B90128E631E005
:2062600040E050E00F94E8D72091FE113091FF11409100125091011229833A834B835C83EE
:206280002D833E834F83588749865A866B867C868D869E86AF86B88A7A8B698B1C8B0B8B56
:2062A00004E124E1AE014F5F5F4F6AE4C7010F94A6C664960FB6F894DEBF0FBECDBFDF9113
:2062C000CF911F910F91FF90EF90BF90AF909F908F907F906F905F904F9008950F93CF93A7
:2062E000DF931F921F92CDB7DEB72091D80D3091D90D2F3F4FEF340719F440E020E002C09E
:20630000422F232F49832A830CE122E0AE014F5F5F4F6AE20F94A6C60F900F90DF91CF91DE
:206320000F9108950F93CF93DF93CDB7DEB728970FB6F894DEBF0FBECDBF20914E06222341
:2063400049F1F0917106F0FD02C0E0E001C0E2E0F1FDE3E0209176063091770640917206B4
:2063600050917306609174067091750649835A836B837C833E832D8321E0F11101C020E011
:206380002F83E8870DEB28E0AE014F5F5F4F62EA0F94A6C628960FB6F894DEBF0FBECDBF71
:2063A000DF91CF910F910895A3E0B0E0EAEDF1E30D9421D97C018091621590916315DC01FC
:2063C000ED91FC910488F589E02D1995182F8091661590916715DC01ED91FC910480F5819B
:2063E000E02D199520E030E04AE754E40F94A0D60F9447D47A8369831B8305E123E0AE0173
:206400004F5F5F4F65EAC7010F94A6C62396E6E00D943DD9A0E0B0E0E0E1F2E30D9423D981
:20642000FE0138962191319181E080931F0C8F0142E350E060E27CE08091741590917515B4
:206440000F94982262E170E08CE19CE00F9495BA8091F30C882379F083E3EFE1FCE0A6EFA6
:20646000BCE001900D928A95E1F762E170E083EF9CE00F9495BAE4E00D943FD98091EE0B5F
:2064800085FF07C08F7D8093EE0B60E081E10C94A62708958091FC0B87FD06C08091FE0B71
:2064A00082FB882780F9089581E008958091FE0B80FF2DC08E7F8093FE0B60E081E49BE0CD
:2064C0000F945D791092AC051092AD051092AE051092AF051092A8051092A9051092AA0501
:2064E0001092AB0584EC92E10F94A79489E992E10F94A79482EA92E10F94A79483EA92E129
:206500000F94A79480919B168B7F80939B1608958091FB0B982F9D7F953039F48091590713
:2065200090915A070E9464C010C0833051F0863041F08430A9F48091280B9091290B0197E6
:2065400079F484E597E00E94DAD80F9447D460932D0B70932E0B80932F0B9093300B08952D
:2065600010922D0B10922E0B10922F0B1092300B0895CF92DF92EF92FF920F931F93009147
:20658000350B1091360B2091370B3091380B80911C0B90911D0BA0911E0BB0911F0B801B01
:2065A000910BA20BB30BB7FF07C0B095A095909581959F4FAF4FBF4F853F9140A105B105B7
:2065C00094F100931C0B10931D0B20931E0B30931F0BC901B801605B794B8F4F9F4F24E610
:2065E00030E040E050E00F94E8D7CA01B9010F9475D40F94455A6B017C010F94D7D36093FD
:206600001402709315028093160290931702C701B6010F9403D76093180B7093190B809397
:206620001A0B90931B0B1F910F91FF90EF90DF90CF90089588E390E10F94830A8823F1F08B
:2066400088E390E10F94A1088823C1F088E390E19093400E80933F0E80913A0E992787FD6C
:206660009095E091470EF091480EEA5BFF4F918380839093FA108093F91008958091321570
:2066800090913315DC01ED91FC910484F585E02D65E177E0199561E083E00C94A62720E03E
:2066A00030E0A9016091AC127091AD128091AE129091AF120F94D3D318161CF01092F40BDA
:2066C00008958091E2069091E306DC01ED91FC910480F581E02D6091AB1219958091E206D6
:2066E0009091E306DC01ED91FC910284F385E02D199520E030E04FE753E40F94A0D62091A8
:20670000AC123091AD124091AE125091AF120F94DAD30F9442D4DC01CB014FEF50E060E0A8
:2067200070E00F94235A8093F40B0895CF92DF92EF92FF92CF93DF93D82F8091E1128130C6
:2067400011F083FF6AC08091FB0B0E94372AC82F8091A212833009F4C1E08CE496E00E94DD
:206760005FCB81FD03C0CC2309F457C08091BF1181FF06C0DD2309F443C06DEB79E03CC0D7
:206780000E944A2AC82F81110CC0DD2331F069EA79E083E090E00E94AE2B80919B168E7FA4
:2067A00039C086E59AE00F94D66B6B017C0120E030E0A9010F94D3D3882351F020E030E02F
:2067C00048E452E4C701B6010F9450D618162CF4DD23B1F064E979E00FC0409106125091E1
:2067E00007122091A4123091A5122417350778F4DD2331F06EE779E083E090E00E94AE2BA1
:2068000080919B168E7F80939B16C0E00CC080919B16816080939B1606C080919B168160A9
:2068200080939B16C1E08C2FDF91CF91FF90EF90DF90CF9008950F931F93CF93DF938091B6
:206840006C1590916D15DC01ED91FC910088F189E02D19959091FD0B95FB222720F98217BB
:20686000F1F080FB95F99093FD0BC0915815D0915915E881F9810689178995FF05C08091FA
:206880008E1290918F1204C080919012909191120F94AA06AB01BC01CE01F8011995DF91B9
:2068A000CF911F910F9108954F925F926F927F928F929F92AF92BF92CF92DF92EF92FF92DF
:2068C000CF93DF93009741F02091C9123091CA12243F314021F48FC080E090E08CC048EE69
:2068E00053E060E070E00F94235A5C014CEB52E06CE271E08091C9129091CA120F94235A47
:20690000EC019093CA128093C91244EFA41641E0B406C4F58090C0129090C112B4018827E3
:2069200077FD8095982F0F9475D46B017C01B50168197909882777FD8095982F0F9475D48E
